{
	"data": {
		"bytecode": {
			"linkReferences": {},
			"object": "6080604052348015600e575f5ffd5b50610dd48061001c5f395ff3fe608060405234801561000f575f5ffd5b5060043610610034575f3560e01c80631157e59f146100385780634621a00d14610068575b5f5ffd5b610052600480360381019061004d919061098d565b610098565b60405161005f91906109ec565b60405180910390f35b610082600480360381019061007d9190610a2f565b610134565b60405161008f9190610aba565b60405180910390f35b5f5f8290505f5f90505f5f90505f600184516100b49190610b10565b90505b5f8112610128575f6100e58583815181106100d5576100d4610b50565b5b602001015160f81c60f81b6105bf565b9050828110156101025780846100fb9190610b7d565b9350610111565b808461010e9190610bb0565b93505b80925050808061012090610be3565b9150506100b7565b50819350505050919050565b60605f821180156101465750610fa082105b610185576040517f08c379a000000000000000000000000000000000000000000000000000000000815260040161017c90610c74565b60405180910390fd5b5f604051806101a001604052806103e8815260200161038481526020016101f48152602001610190815260200160648152602001605a81526020016032815260200160288152602001600a8152602001600981526020016005815260200160048152602001600181525090505f604051806101a001604052806040518060400160405280600181526020017f4d0000000000000000000000000000000000000000000000000000000000000081525081526020016040518060400160405280600281526020017f434d00000000000000000000000000000000000000000000000000000000000081525081526020016040518060400160405280600181526020017f440000000000000000000000000000000000000000000000000000000000000081525081526020016040518060400160405280600281526020017f434400000000000000000000000000000000000000000000000000000000000081525081526020016040518060400160405280600181526020017f430000000000000000000000000000000000000000000000000000000000000081525081526020016040518060400160405280600281526020017f584300000000000000000000000000000000000000000000000000000000000081525081526020016040518060400160405280600181526020017f4c0000000000000000000000000000000000000000000000000000000000000081525081526020016040518060400160405280600281526020017f584c00000000000000000000000000000000000000000000000000000000000081525081526020016040518060400160405280600181526020017f580000000000000000000000000000000000000000000000000000000000000081525081526020016040518060400160405280600281526020017f495800000000000000000000000000000000000000000000000000000000000081525081526020016040518060400160405280600181526020017f560000000000000000000000000000000000000000000000000000000000000081525081526020016040518060400160405280600281526020017f495600000000000000000000000000000000000000000000000000000000000081525081526020016040518060400160405280600181526020017f490000000000000000000000000000000000000000000000000000000000000081525081525090505f60405180602001604052805f81525090505f5f90505b5f8611156105b3575b8381600d81106105305761052f610b50565b5b602002015186106105a057818382600d811061054f5761054e610b50565b5b6020020151604051602001610565929190610ccc565b60405160208183030381529060405291508381600d811061058957610588610b50565b5b6020020151866105999190610b7d565b955061051d565b80806105ab90610cef565b915050610514565b81945050505050919050565b5f7f4900000000000000000000000000000000000000000000000000000000000000827effffffffffffffffffffffffffffffffffffffffffffffffffffffffffffff191603610612576001905061083b565b7f5600000000000000000000000000000000000000000000000000000000000000827effffffffffffffffffffffffffffffffffffffffffffffffffffffffffffff191603610664576005905061083b565b7f5800000000000000000000000000000000000000000000000000000000000000827effffffffffffffffffffffffffffffffffffffffffffffffffffffffffffff1916036106b657600a905061083b565b7f4c00000000000000000000000000000000000000000000000000000000000000827effffffffffffffffffffffffffffffffffffffffffffffffffffffffffffff191603610708576032905061083b565b7f4300000000000000000000000000000000000000000000000000000000000000827effffffffffffffffffffffffffffffffffffffffffffffffffffffffffffff19160361075a576064905061083b565b7f4400000000000000000000000000000000000000000000000000000000000000827effffffffffffffffffffffffffffffffffffffffffffffffffffffffffffff1916036107ad576101f4905061083b565b7f4d00000000000000000000000000000000000000000000000000000000000000827effffffffffffffffffffffffffffffffffffffffffffffffffffffffffffff191603610800576103e8905061083b565b6040517f08c379a000000000000000000000000000000000000000000000000000000000815260040161083290610d80565b60405180910390fd5b919050565b5f604051905090565b5f5ffd5b5f5ffd5b5f5ffd5b5f5ffd5b5f601f19601f8301169050919050565b7f4e487b71000000000000000000000000000000000000000000000000000000005f52604160045260245ffd5b61089f82610859565b810181811067ffffffffffffffff821117156108be576108bd610869565b5b80604052505050565b5f6108d0610840565b90506108dc8282610896565b919050565b5f67ffffffffffffffff8211156108fb576108fa610869565b5b61090482610859565b9050602081019050919050565b828183375f83830152505050565b5f61093161092c846108e1565b6108c7565b90508281526020810184848401111561094d5761094c610855565b5b610958848285610911565b509392505050565b5f82601f83011261097457610973610851565b5b813561098484826020860161091f565b91505092915050565b5f602082840312156109a2576109a1610849565b5b5f82013567ffffffffffffffff8111156109bf576109be61084d565b5b6109cb84828501610960565b91505092915050565b5f819050919050565b6109e6816109d4565b82525050565b5f6020820190506109ff5f8301846109dd565b92915050565b610a0e816109d4565b8114610a18575f5ffd5b50565b5f81359050610a2981610a05565b92915050565b5f60208284031215610a4457610a43610849565b5b5f610a5184828501610a1b565b91505092915050565b5f81519050919050565b5f82825260208201905092915050565b8281835e5f83830152505050565b5f610a8c82610a5a565b610a968185610a64565b9350610aa6818560208601610a74565b610aaf81610859565b840191505092915050565b5f6020820190508181035f830152610ad28184610a82565b905092915050565b5f819050919050565b7f4e487b71000000000000000000000000000000000000000000000000000000005f52601160045260245ffd5b5f610b1a82610ada565b9150610b2583610ada565b925082820390508181125f8412168282135f851215161715610b4a57610b49610ae3565b5b92915050565b7f4e487b71000000000000000000000000000000000000000000000000000000005f52603260045260245ffd5b5f610b87826109d4565b9150610b92836109d4565b9250828203905081811115610baa57610ba9610ae3565b5b92915050565b5f610bba826109d4565b9150610bc5836109d4565b9250828201905080821115610bdd57610bdc610ae3565b5b92915050565b5f610bed82610ada565b91507f80000000000000000000000000000000000000000000000000000000000000008203610c1f57610c1e610ae3565b5b600182039050919050565b7f4e756d626572206f7574206f662072616e6765000000000000000000000000005f82015250565b5f610c5e601383610a64565b9150610c6982610c2a565b602082019050919050565b5f6020820190508181035f830152610c8b81610c52565b9050919050565b5f81905092915050565b5f610ca682610a5a565b610cb08185610c92565b9350610cc0818560208601610a74565b80840191505092915050565b5f610cd78285610c9c565b9150610ce38284610c9c565b91508190509392505050565b5f610cf9826109d4565b91507fffffffffffffffffffffffffffffffffffffffffffffffffffffffffffffffff8203610d2b57610d2a610ae3565b5b600182019050919050565b7f496e76616c696420526f6d616e206e756d6572616c20636861726163746572005f82015250565b5f610d6a601f83610a64565b9150610d7582610d36565b602082019050919050565b5f6020820190508181035f830152610d9781610d5e565b905091905056fea26469706673582212201447bb2ef7b9d4386a3be1a00b0196ded48dc43a99167c8efdab0c1735983fe564736f6c634300081e0033",
			"opcodes": "PUSH1 0x80 PUSH1 0x40 MSTORE CALLVALUE DUP1 ISZERO PUSH1 0xE JUMPI PUSH0 PUSH0 REVERT JUMPDEST POP PUSH2 0xDD4 DUP1 PUSH2 0x1C PUSH0 CODECOPY PUSH0 RETURN INVALID PUSH1 0x80 PUSH1 0x40 MSTORE CALLVALUE DUP1 ISZERO PUSH2 0xF JUMPI PUSH0 PUSH0 REVERT JUMPDEST POP PUSH1 0x4 CALLDATASIZE LT PUSH2 0x34 JUMPI PUSH0 CALLDATALOAD PUSH1 0xE0 SHR DUP1 PUSH4 0x1157E59F EQ PUSH2 0x38 JUMPI DUP1 PUSH4 0x4621A00D EQ PUSH2 0x68 JUMPI JUMPDEST PUSH0 PUSH0 REVERT JUMPDEST PUSH2 0x52 PUSH1 0x4 DUP1 CALLDATASIZE SUB DUP2 ADD SWAP1 PUSH2 0x4D SWAP2 SWAP1 PUSH2 0x98D JUMP JUMPDEST PUSH2 0x98 JUMP JUMPDEST PUSH1 0x40 MLOAD PUSH2 0x5F SWAP2 SWAP1 PUSH2 0x9EC JUMP JUMPDEST PUSH1 0x40 MLOAD DUP1 SWAP2 SUB SWAP1 RETURN JUMPDEST PUSH2 0x82 PUSH1 0x4 DUP1 CALLDATASIZE SUB DUP2 ADD SWAP1 PUSH2 0x7D SWAP2 SWAP1 PUSH2 0xA2F JUMP JUMPDEST PUSH2 0x134 JUMP JUMPDEST PUSH1 0x40 MLOAD PUSH2 0x8F SWAP2 SWAP1 PUSH2 0xABA JUMP JUMPDEST PUSH1 0x40 MLOAD DUP1 SWAP2 SUB SWAP1 RETURN JUMPDEST PUSH0 PUSH0 DUP3 SWAP1 POP PUSH0 PUSH0 SWAP1 POP PUSH0 PUSH0 SWAP1 POP PUSH0 PUSH1 0x1 DUP5 MLOAD PUSH2 0xB4 SWAP2 SWAP1 PUSH2 0xB10 JUMP JUMPDEST SWAP1 POP JUMPDEST PUSH0 DUP2 SLT PUSH2 0x128 JUMPI PUSH0 PUSH2 0xE5 DUP6 DUP4 DUP2 MLOAD DUP2 LT PUSH2 0xD5 JUMPI PUSH2 0xD4 PUSH2 0xB50 JUMP JUMPDEST JUMPDEST PUSH1 0x20 ADD ADD MLOAD PUSH1 0xF8 SHR PUSH1 0xF8 SHL PUSH2 0x5BF JUMP JUMPDEST SWAP1 POP DUP3 DUP2 LT ISZERO PUSH2 0x102 JUMPI DUP1 DUP5 PUSH2 0xFB SWAP2 SWAP1 PUSH2 0xB7D JUMP JUMPDEST SWAP4 POP PUSH2 0x111 JUMP JUMPDEST DUP1 DUP5 PUSH2 0x10E SWAP2 SWAP1 PUSH2 0xBB0 JUMP JUMPDEST SWAP4 POP JUMPDEST DUP1 SWAP3 POP POP DUP1 DUP1 PUSH2 0x120 SWAP1 PUSH2 0xBE3 JUMP JUMPDEST SWAP2 POP POP PUSH2 0xB7 JUMP JUMPDEST POP DUP2 SWAP4 POP POP POP POP SWAP2 SWAP1 POP JUMP JUMPDEST PUSH1 0x60 PUSH0 DUP3 GT DUP1 ISZERO PUSH2 0x146 JUMPI POP PUSH2 0xFA0 DUP3 LT JUMPDEST PUSH2 0x185 JUMPI PUSH1 0x40 MLOAD PUSH32 0x8C379A000000000000000000000000000000000000000000000000000000000 DUP2 MSTORE PUSH1 0x4 ADD PUSH2 0x17C SWAP1 PUSH2 0xC74 JUMP JUMPDEST PUSH1 0x40 MLOAD DUP1 SWAP2 SUB SWAP1 REVERT JUMPDEST PUSH0 PUSH1 0x40 MLOAD DUP1 PUSH2 0x1A0 ADD PUSH1 0x40 MSTORE DUP1 PUSH2 0x3E8 DUP2 MSTORE PUSH1 0x20 ADD PUSH2 0x384 DUP2 MSTORE PUSH1 0x20 ADD PUSH2 0x1F4 DUP2 MSTORE PUSH1 0x20 ADD PUSH2 0x190 DUP2 MSTORE PUSH1 0x20 ADD PUSH1 0x64 DUP2 MSTORE PUSH1 0x20 ADD PUSH1 0x5A DUP2 MSTORE PUSH1 0x20 ADD PUSH1 0x32 DUP2 MSTORE PUSH1 0x20 ADD PUSH1 0x28 DUP2 MSTORE PUSH1 0x20 ADD PUSH1 0xA DUP2 MSTORE PUSH1 0x20 ADD PUSH1 0x9 DUP2 MSTORE PUSH1 0x20 ADD PUSH1 0x5 DUP2 MSTORE PUSH1 0x20 ADD PUSH1 0x4 DUP2 MSTORE PUSH1 0x20 ADD PUSH1 0x1 DUP2 MSTORE POP SWAP1 POP PUSH0 PUSH1 0x40 MLOAD DUP1 PUSH2 0x1A0 ADD PUSH1 0x40 MSTORE DUP1 PUSH1 0x40 MLOAD DUP1 PUSH1 0x40 ADD PUSH1 0x40 MSTORE DUP1 PUSH1 0x1 DUP2 MSTORE PUSH1 0x20 ADD PUSH32 0x4D00000000000000000000000000000000000000000000000000000000000000 DUP2 MSTORE POP DUP2 MSTORE PUSH1 0x20 ADD PUSH1 0x40 MLOAD DUP1 PUSH1 0x40 ADD PUSH1 0x40 MSTORE DUP1 PUSH1 0x2 DUP2 MSTORE PUSH1 0x20 ADD PUSH32 0x434D000000000000000000000000000000000000000000000000000000000000 DUP2 MSTORE POP DUP2 MSTORE PUSH1 0x20 ADD PUSH1 0x40 MLOAD DUP1 PUSH1 0x40 ADD PUSH1 0x40 MSTORE DUP1 PUSH1 0x1 DUP2 MSTORE PUSH1 0x20 ADD PUSH32 0x4400000000000000000000000000000000000000000000000000000000000000 DUP2 MSTORE POP DUP2 MSTORE PUSH1 0x20 ADD PUSH1 0x40 MLOAD DUP1 PUSH1 0x40 ADD PUSH1 0x40 MSTORE DUP1 PUSH1 0x2 DUP2 MSTORE PUSH1 0x20 ADD PUSH32 0x4344000000000000000000000000000000000000000000000000000000000000 DUP2 MSTORE POP DUP2 MSTORE PUSH1 0x20 ADD PUSH1 0x40 MLOAD DUP1 PUSH1 0x40 ADD PUSH1 0x40 MSTORE DUP1 PUSH1 0x1 DUP2 MSTORE PUSH1 0x20 ADD PUSH32 0x4300000000000000000000000000000000000000000000000000000000000000 DUP2 MSTORE POP DUP2 MSTORE PUSH1 0x20 ADD PUSH1 0x40 MLOAD DUP1 PUSH1 0x40 ADD PUSH1 0x40 MSTORE DUP1 PUSH1 0x2 DUP2 MSTORE PUSH1 0x20 ADD PUSH32 0x5843000000000000000000000000000000000000000000000000000000000000 DUP2 MSTORE POP DUP2 MSTORE PUSH1 0x20 ADD PUSH1 0x40 MLOAD DUP1 PUSH1 0x40 ADD PUSH1 0x40 MSTORE DUP1 PUSH1 0x1 DUP2 MSTORE PUSH1 0x20 ADD PUSH32 0x4C00000000000000000000000000000000000000000000000000000000000000 DUP2 MSTORE POP DUP2 MSTORE PUSH1 0x20 ADD PUSH1 0x40 MLOAD DUP1 PUSH1 0x40 ADD PUSH1 0x40 MSTORE DUP1 PUSH1 0x2 DUP2 MSTORE PUSH1 0x20 ADD PUSH32 0x584C000000000000000000000000000000000000000000000000000000000000 DUP2 MSTORE POP DUP2 MSTORE PUSH1 0x20 ADD PUSH1 0x40 MLOAD DUP1 PUSH1 0x40 ADD PUSH1 0x40 MSTORE DUP1 PUSH1 0x1 DUP2 MSTORE PUSH1 0x20 ADD PUSH32 0x5800000000000000000000000000000000000000000000000000000000000000 DUP2 MSTORE POP DUP2 MSTORE PUSH1 0x20 ADD PUSH1 0x40 MLOAD DUP1 PUSH1 0x40 ADD PUSH1 0x40 MSTORE DUP1 PUSH1 0x2 DUP2 MSTORE PUSH1 0x20 ADD PUSH32 0x4958000000000000000000000000000000000000000000000000000000000000 DUP2 MSTORE POP DUP2 MSTORE PUSH1 0x20 ADD PUSH1 0x40 MLOAD DUP1 PUSH1 0x40 ADD PUSH1 0x40 MSTORE DUP1 PUSH1 0x1 DUP2 MSTORE PUSH1 0x20 ADD PUSH32 0x5600000000000000000000000000000000000000000000000000000000000000 DUP2 MSTORE POP DUP2 MSTORE PUSH1 0x20 ADD PUSH1 0x40 MLOAD DUP1 PUSH1 0x40 ADD PUSH1 0x40 MSTORE DUP1 PUSH1 0x2 DUP2 MSTORE PUSH1 0x20 ADD PUSH32 0x4956000000000000000000000000000000000000000000000000000000000000 DUP2 MSTORE POP DUP2 MSTORE PUSH1 0x20 ADD PUSH1 0x40 MLOAD DUP1 PUSH1 0x40 ADD PUSH1 0x40 MSTORE DUP1 PUSH1 0x1 DUP2 MSTORE PUSH1 0x20 ADD PUSH32 0x4900000000000000000000000000000000000000000000000000000000000000 DUP2 MSTORE POP DUP2 MSTORE POP SWAP1 POP PUSH0 PUSH1 0x40 MLOAD DUP1 PUSH1 0x20 ADD PUSH1 0x40 MSTORE DUP1 PUSH0 DUP2 MSTORE POP SWAP1 POP PUSH0 PUSH0 SWAP1 POP JUMPDEST PUSH0 DUP7 GT ISZERO PUSH2 0x5B3 JUMPI JUMPDEST DUP4 DUP2 PUSH1 0xD DUP2 LT PUSH2 0x530 JUMPI PUSH2 0x52F PUSH2 0xB50 JUMP JUMPDEST JUMPDEST PUSH1 0x20 MUL ADD MLOAD DUP7 LT PUSH2 0x5A0 JUMPI DUP2 DUP4 DUP3 PUSH1 0xD DUP2 LT PUSH2 0x54F JUMPI PUSH2 0x54E PUSH2 0xB50 JUMP JUMPDEST JUMPDEST PUSH1 0x20 MUL ADD MLOAD PUSH1 0x40 MLOAD PUSH1 0x20 ADD PUSH2 0x565 SWAP3 SWAP2 SWAP1 PUSH2 0xCCC JUMP JUMPDEST PUSH1 0x40 MLOAD PUSH1 0x20 DUP2 DUP4 SUB SUB DUP2 MSTORE SWAP1 PUSH1 0x40 MSTORE SWAP2 POP DUP4 DUP2 PUSH1 0xD DUP2 LT PUSH2 0x589 JUMPI PUSH2 0x588 PUSH2 0xB50 JUMP JUMPDEST JUMPDEST PUSH1 0x20 MUL ADD MLOAD DUP7 PUSH2 0x599 SWAP2 SWAP1 PUSH2 0xB7D JUMP JUMPDEST SWAP6 POP PUSH2 0x51D JUMP JUMPDEST DUP1 DUP1 PUSH2 0x5AB SWAP1 PUSH2 0xCEF JUMP JUMPDEST SWAP2 POP POP PUSH2 0x514 JUMP JUMPDEST DUP2 SWAP5 POP POP POP POP POP SWAP2 SWAP1 POP JUMP JUMPDEST PUSH0 PUSH32 0x4900000000000000000000000000000000000000000000000000000000000000 DUP3 PUSH31 0xFFFFFFFFFFFFFFFFFFFFFFFFFFFFFFFFFFFFFFFFFFFFFFFFFFFFFFFFFFFFFF NOT AND SUB PUSH2 0x612 JUMPI PUSH1 0x1 SWAP1 POP PUSH2 0x83B JUMP JUMPDEST PUSH32 0x5600000000000000000000000000000000000000000000000000000000000000 DUP3 PUSH31 0xFFFFFFFFFFFFFFFFFFFFFFFFFFFFFFFFFFFFFFFFFFFFFFFFFFFFFFFFFFFFFF NOT AND SUB PUSH2 0x664 JUMPI PUSH1 0x5 SWAP1 POP PUSH2 0x83B JUMP JUMPDEST PUSH32 0x5800000000000000000000000000000000000000000000000000000000000000 DUP3 PUSH31 0xFFFFFFFFFFFFFFFFFFFFFFFFFFFFFFFFFFFFFFFFFFFFFFFFFFFFFFFFFFFFFF NOT AND SUB PUSH2 0x6B6 JUMPI PUSH1 0xA SWAP1 POP PUSH2 0x83B JUMP JUMPDEST PUSH32 0x4C00000000000000000000000000000000000000000000000000000000000000 DUP3 PUSH31 0xFFFFFFFFFFFFFFFFFFFFFFFFFFFFFFFFFFFFFFFFFFFFFFFFFFFFFFFFFFFFFF NOT AND SUB PUSH2 0x708 JUMPI PUSH1 0x32 SWAP1 POP PUSH2 0x83B JUMP JUMPDEST PUSH32 0x4300000000000000000000000000000000000000000000000000000000000000 DUP3 PUSH31 0xFFFFFFFFFFFFFFFFFFFFFFFFFFFFFFFFFFFFFFFFFFFFFFFFFFFFFFFFFFFFFF NOT AND SUB PUSH2 0x75A JUMPI PUSH1 0x64 SWAP1 POP PUSH2 0x83B JUMP JUMPDEST PUSH32 0x4400000000000000000000000000000000000000000000000000000000000000 DUP3 PUSH31 0xFFFFFFFFFFFFFFFFFFFFFFFFFFFFFFFFFFFFFFFFFFFFFFFFFFFFFFFFFFFFFF NOT AND SUB PUSH2 0x7AD JUMPI PUSH2 0x1F4 SWAP1 POP PUSH2 0x83B JUMP JUMPDEST PUSH32 0x4D00000000000000000000000000000000000000000000000000000000000000 DUP3 PUSH31 0xFFFFFFFFFFFFFFFFFFFFFFFFFFFFFFFFFFFFFFFFFFFFFFFFFFFFFFFFFFFFFF NOT AND SUB PUSH2 0x800 JUMPI PUSH2 0x3E8 SWAP1 POP PUSH2 0x83B JUMP JUMPDEST PUSH1 0x40 MLOAD PUSH32 0x8C379A000000000000000000000000000000000000000000000000000000000 DUP2 MSTORE PUSH1 0x4 ADD PUSH2 0x832 SWAP1 PUSH2 0xD80 JUMP JUMPDEST PUSH1 0x40 MLOAD DUP1 SWAP2 SUB SWAP1 REVERT JUMPDEST SWAP2 SWAP1 POP JUMP JUMPDEST PUSH0 PUSH1 0x40 MLOAD SWAP1 POP SWAP1 JUMP JUMPDEST PUSH0 PUSH0 REVERT JUMPDEST PUSH0 PUSH0 REVERT JUMPDEST PUSH0 PUSH0 REVERT JUMPDEST PUSH0 PUSH0 REVERT JUMPDEST PUSH0 PUSH1 0x1F NOT PUSH1 0x1F DUP4 ADD AND SWAP1 POP SWAP2 SWAP1 POP JUMP JUMPDEST PUSH32 0x4E487B7100000000000000000000000000000000000000000000000000000000 PUSH0 MSTORE PUSH1 0x41 PUSH1 0x4 MSTORE PUSH1 0x24 PUSH0 REVERT JUMPDEST PUSH2 0x89F DUP3 PUSH2 0x859 JUMP JUMPDEST DUP2 ADD DUP2 DUP2 LT PUSH8 0xFFFFFFFFFFFFFFFF DUP3 GT OR ISZERO PUSH2 0x8BE JUMPI PUSH2 0x8BD PUSH2 0x869 JUMP JUMPDEST JUMPDEST DUP1 PUSH1 0x40 MSTORE POP POP POP JUMP JUMPDEST PUSH0 PUSH2 0x8D0 PUSH2 0x840 JUMP JUMPDEST SWAP1 POP PUSH2 0x8DC DUP3 DUP3 PUSH2 0x896 JUMP JUMPDEST SWAP2 SWAP1 POP JUMP JUMPDEST PUSH0 PUSH8 0xFFFFFFFFFFFFFFFF DUP3 GT ISZERO PUSH2 0x8FB JUMPI PUSH2 0x8FA PUSH2 0x869 JUMP JUMPDEST JUMPDEST PUSH2 0x904 DUP3 PUSH2 0x859 JUMP JUMPDEST SWAP1 POP PUSH1 0x20 DUP2 ADD SWAP1 POP SWAP2 SWAP1 POP JUMP JUMPDEST DUP3 DUP2 DUP4 CALLDATACOPY PUSH0 DUP4 DUP4 ADD MSTORE POP POP POP JUMP JUMPDEST PUSH0 PUSH2 0x931 PUSH2 0x92C DUP5 PUSH2 0x8E1 JUMP JUMPDEST PUSH2 0x8C7 JUMP JUMPDEST SWAP1 POP DUP3 DUP2 MSTORE PUSH1 0x20 DUP2 ADD DUP5 DUP5 DUP5 ADD GT ISZERO PUSH2 0x94D JUMPI PUSH2 0x94C PUSH2 0x855 JUMP JUMPDEST JUMPDEST PUSH2 0x958 DUP5 DUP3 DUP6 PUSH2 0x911 JUMP JUMPDEST POP SWAP4 SWAP3 POP POP POP JUMP JUMPDEST PUSH0 DUP3 PUSH1 0x1F DUP4 ADD SLT PUSH2 0x974 JUMPI PUSH2 0x973 PUSH2 0x851 JUMP JUMPDEST JUMPDEST DUP2 CALLDATALOAD PUSH2 0x984 DUP5 DUP3 PUSH1 0x20 DUP7 ADD PUSH2 0x91F JUMP JUMPDEST SWAP2 POP POP SWAP3 SWAP2 POP POP JUMP JUMPDEST PUSH0 PUSH1 0x20 DUP3 DUP5 SUB SLT ISZERO PUSH2 0x9A2 JUMPI PUSH2 0x9A1 PUSH2 0x849 JUMP JUMPDEST JUMPDEST PUSH0 DUP3 ADD CALLDATALOAD PUSH8 0xFFFFFFFFFFFFFFFF DUP2 GT ISZERO PUSH2 0x9BF JUMPI PUSH2 0x9BE PUSH2 0x84D JUMP JUMPDEST JUMPDEST PUSH2 0x9CB DUP5 DUP3 DUP6 ADD PUSH2 0x960 JUMP JUMPDEST SWAP2 POP POP SWAP3 SWAP2 POP POP JUMP JUMPDEST PUSH0 DUP2 SWAP1 POP SWAP2 SWAP1 POP JUMP JUMPDEST PUSH2 0x9E6 DUP2 PUSH2 0x9D4 JUMP JUMPDEST DUP3 MSTORE POP POP JUMP JUMPDEST PUSH0 PUSH1 0x20 DUP3 ADD SWAP1 POP PUSH2 0x9FF PUSH0 DUP4 ADD DUP5 PUSH2 0x9DD JUMP JUMPDEST SWAP3 SWAP2 POP POP JUMP JUMPDEST PUSH2 0xA0E DUP2 PUSH2 0x9D4 JUMP JUMPDEST DUP2 EQ PUSH2 0xA18 JUMPI PUSH0 PUSH0 REVERT JUMPDEST POP JUMP JUMPDEST PUSH0 DUP2 CALLDATALOAD SWAP1 POP PUSH2 0xA29 DUP2 PUSH2 0xA05 JUMP JUMPDEST SWAP3 SWAP2 POP POP JUMP JUMPDEST PUSH0 PUSH1 0x20 DUP3 DUP5 SUB SLT ISZERO PUSH2 0xA44 JUMPI PUSH2 0xA43 PUSH2 0x849 JUMP JUMPDEST JUMPDEST PUSH0 PUSH2 0xA51 DUP5 DUP3 DUP6 ADD PUSH2 0xA1B JUMP JUMPDEST SWAP2 POP POP SWAP3 SWAP2 POP POP JUMP JUMPDEST PUSH0 DUP2 MLOAD SWAP1 POP SWAP2 SWAP1 POP JUMP JUMPDEST PUSH0 DUP3 DUP3 MSTORE PUSH1 0x20 DUP3 ADD SWAP1 POP SWAP3 SWAP2 POP POP JUMP JUMPDEST DUP3 DUP2 DUP4 MCOPY PUSH0 DUP4 DUP4 ADD MSTORE POP POP POP JUMP JUMPDEST PUSH0 PUSH2 0xA8C DUP3 PUSH2 0xA5A JUMP JUMPDEST PUSH2 0xA96 DUP2 DUP6 PUSH2 0xA64 JUMP JUMPDEST SWAP4 POP PUSH2 0xAA6 DUP2 DUP6 PUSH1 0x20 DUP7 ADD PUSH2 0xA74 JUMP JUMPDEST PUSH2 0xAAF DUP2 PUSH2 0x859 JUMP JUMPDEST DUP5 ADD SWAP2 POP POP SWAP3 SWAP2 POP POP JUMP JUMPDEST PUSH0 PUSH1 0x20 DUP3 ADD SWAP1 POP DUP2 DUP2 SUB PUSH0 DUP4 ADD MSTORE PUSH2 0xAD2 DUP2 DUP5 PUSH2 0xA82 JUMP JUMPDEST SWAP1 POP SWAP3 SWAP2 POP POP JUMP JUMPDEST PUSH0 DUP2 SWAP1 POP SWAP2 SWAP1 POP JUMP JUMPDEST PUSH32 0x4E487B7100000000000000000000000000000000000000000000000000000000 PUSH0 MSTORE PUSH1 0x11 PUSH1 0x4 MSTORE PUSH1 0x24 PUSH0 REVERT JUMPDEST PUSH0 PUSH2 0xB1A DUP3 PUSH2 0xADA JUMP JUMPDEST SWAP2 POP PUSH2 0xB25 DUP4 PUSH2 0xADA JUMP JUMPDEST SWAP3 POP DUP3 DUP3 SUB SWAP1 POP DUP2 DUP2 SLT PUSH0 DUP5 SLT AND DUP3 DUP3 SGT PUSH0 DUP6 SLT ISZERO AND OR ISZERO PUSH2 0xB4A JUMPI PUSH2 0xB49 PUSH2 0xAE3 JUMP JUMPDEST JUMPDEST SWAP3 SWAP2 POP POP JUMP JUMPDEST PUSH32 0x4E487B7100000000000000000000000000000000000000000000000000000000 PUSH0 MSTORE PUSH1 0x32 PUSH1 0x4 MSTORE PUSH1 0x24 PUSH0 REVERT JUMPDEST PUSH0 PUSH2 0xB87 DUP3 PUSH2 0x9D4 JUMP JUMPDEST SWAP2 POP PUSH2 0xB92 DUP4 PUSH2 0x9D4 JUMP JUMPDEST SWAP3 POP DUP3 DUP3 SUB SWAP1 POP DUP2 DUP2 GT ISZERO PUSH2 0xBAA JUMPI PUSH2 0xBA9 PUSH2 0xAE3 JUMP JUMPDEST JUMPDEST SWAP3 SWAP2 POP POP JUMP JUMPDEST PUSH0 PUSH2 0xBBA DUP3 PUSH2 0x9D4 JUMP JUMPDEST SWAP2 POP PUSH2 0xBC5 DUP4 PUSH2 0x9D4 JUMP JUMPDEST SWAP3 POP DUP3 DUP3 ADD SWAP1 POP DUP1 DUP3 GT ISZERO PUSH2 0xBDD JUMPI PUSH2 0xBDC PUSH2 0xAE3 JUMP JUMPDEST JUMPDEST SWAP3 SWAP2 POP POP JUMP JUMPDEST PUSH0 PUSH2 0xBED DUP3 PUSH2 0xADA JUMP JUMPDEST SWAP2 POP PUSH32 0x8000000000000000000000000000000000000000000000000000000000000000 DUP3 SUB PUSH2 0xC1F JUMPI PUSH2 0xC1E PUSH2 0xAE3 JUMP JUMPDEST JUMPDEST PUSH1 0x1 DUP3 SUB SWAP1 POP SWAP2 SWAP1 POP JUMP JUMPDEST PUSH32 0x4E756D626572206F7574206F662072616E676500000000000000000000000000 PUSH0 DUP3 ADD MSTORE POP JUMP JUMPDEST PUSH0 PUSH2 0xC5E PUSH1 0x13 DUP4 PUSH2 0xA64 JUMP JUMPDEST SWAP2 POP PUSH2 0xC69 DUP3 PUSH2 0xC2A JUMP JUMPDEST PUSH1 0x20 DUP3 ADD SWAP1 POP SWAP2 SWAP1 POP JUMP JUMPDEST PUSH0 PUSH1 0x20 DUP3 ADD SWAP1 POP DUP2 DUP2 SUB PUSH0 DUP4 ADD MSTORE PUSH2 0xC8B DUP2 PUSH2 0xC52 JUMP JUMPDEST SWAP1 POP SWAP2 SWAP1 POP JUMP JUMPDEST PUSH0 DUP2 SWAP1 POP SWAP3 SWAP2 POP POP JUMP JUMPDEST PUSH0 PUSH2 0xCA6 DUP3 PUSH2 0xA5A JUMP JUMPDEST PUSH2 0xCB0 DUP2 DUP6 PUSH2 0xC92 JUMP JUMPDEST SWAP4 POP PUSH2 0xCC0 DUP2 DUP6 PUSH1 0x20 DUP7 ADD PUSH2 0xA74 JUMP JUMPDEST DUP1 DUP5 ADD SWAP2 POP POP SWAP3 SWAP2 POP POP JUMP JUMPDEST PUSH0 PUSH2 0xCD7 DUP3 DUP6 PUSH2 0xC9C JUMP JUMPDEST SWAP2 POP PUSH2 0xCE3 DUP3 DUP5 PUSH2 0xC9C JUMP JUMPDEST SWAP2 POP DUP2 SWAP1 POP SWAP4 SWAP3 POP POP POP JUMP JUMPDEST PUSH0 PUSH2 0xCF9 DUP3 PUSH2 0x9D4 JUMP JUMPDEST SWAP2 POP PUSH32 0xFFFFFFFFFFFFFFFFFFFFFFFFFFFFFFFFFFFFFFFFFFFFFFFFFFFFFFFFFFFFFFFF DUP3 SUB PUSH2 0xD2B JUMPI PUSH2 0xD2A PUSH2 0xAE3 JUMP JUMPDEST JUMPDEST PUSH1 0x1 DUP3 ADD SWAP1 POP SWAP2 SWAP1 POP JUMP JUMPDEST PUSH32 0x496E76616C696420526F6D616E206E756D6572616C2063686172616374657200 PUSH0 DUP3 ADD MSTORE POP JUMP JUMPDEST PUSH0 PUSH2 0xD6A PUSH1 0x1F DUP4 PUSH2 0xA64 JUMP JUMPDEST SWAP2 POP PUSH2 0xD75 DUP3 PUSH2 0xD36 JUMP JUMPDEST PUSH1 0x20 DUP3 ADD SWAP1 POP SWAP2 SWAP1 POP JUMP JUMPDEST PUSH0 PUSH1 0x20 DUP3 ADD SWAP1 POP DUP2 DUP2 SUB PUSH0 DUP4 ADD MSTORE PUSH2 0xD97 DUP2 PUSH2 0xD5E JUMP JUMPDEST SWAP1 POP SWAP2 SWAP1 POP JUMP INVALID LOG2 PUSH5 0x6970667358 0x22 SLT KECCAK256 EQ SELFBALANCE 0xBB 0x2E 0xF7 0xB9 0xD4 CODESIZE PUSH11 0x3BE1A00B0196DED48DC43A SWAP10 AND PUSH29 0x8EFDAB0C1735983FE564736F6C634300081E0033000000000000000000 "
		},
		"gasEstimates": {
			"creation": {
				"codeDepositCost": "708000",
				"executionCost": "739",
				"totalCost": "708739"
			},
			"external": {
				"intToRome(uint256)": "infinite",
				"romeToInt(string)": "infinite"
			},
			"internal": {
				"romanCharToInt(bytes1)": "infinite"
			}
		},
		"methodIdentifiers": {
			"intToRome(uint256)": "4621a00d",
			"romeToInt(string)": "1157e59f"
		}
	},
	"abi": [
		{
			"inputs": [
				{
					"internalType": "uint256",
					"name": "num",
					"type": "uint256"
				}
			],
			"name": "intToRome",
			"outputs": [
				{
					"internalType": "string",
					"name": "",
					"type": "string"
				}
			],
			"stateMutability": "pure",
			"type": "function"
		},
		{
			"inputs": [
				{
					"internalType": "string",
					"name": "romeNumber",
					"type": "string"
				}
			],
			"name": "romeToInt",
			"outputs": [
				{
					"internalType": "uint256",
					"name": "",
					"type": "uint256"
				}
			],
			"stateMutability": "pure",
			"type": "function"
		}
	]
}